{
  "_format": "hh-sol-artifact-1",
  "contractName": "MyNFT",
  "sourceName": "contracts/MetaToken.sol",
  "abi": [
    {
      "inputs": [
        {
          "internalType": "string[]",
          "name": "prompts",
          "type": "string[]"
        }
      ],
      "stateMutability": "nonpayable",
      "type": "constructor"
    },
    {
      "anonymous": false,
      "inputs": [
        {
          "indexed": true,
          "internalType": "address",
          "name": "owner",
          "type": "address"
        },
        {
          "indexed": true,
          "internalType": "address",
          "name": "approved",
          "type": "address"
        },
        {
          "indexed": true,
          "internalType": "uint256",
          "name": "tokenId",
          "type": "uint256"
        }
      ],
      "name": "Approval",
      "type": "event"
    },
    {
      "anonymous": false,
      "inputs": [
        {
          "indexed": true,
          "internalType": "address",
          "name": "owner",
          "type": "address"
        },
        {
          "indexed": true,
          "internalType": "address",
          "name": "operator",
          "type": "address"
        },
        {
          "indexed": false,
          "internalType": "bool",
          "name": "approved",
          "type": "bool"
        }
      ],
      "name": "ApprovalForAll",
      "type": "event"
    },
    {
      "anonymous": false,
      "inputs": [
        {
          "indexed": true,
          "internalType": "address",
          "name": "previousOwner",
          "type": "address"
        },
        {
          "indexed": true,
          "internalType": "address",
          "name": "newOwner",
          "type": "address"
        }
      ],
      "name": "OwnershipTransferred",
      "type": "event"
    },
    {
      "anonymous": false,
      "inputs": [
        {
          "indexed": true,
          "internalType": "address",
          "name": "from",
          "type": "address"
        },
        {
          "indexed": true,
          "internalType": "address",
          "name": "to",
          "type": "address"
        },
        {
          "indexed": true,
          "internalType": "uint256",
          "name": "tokenId",
          "type": "uint256"
        }
      ],
      "name": "Transfer",
      "type": "event"
    },
    {
      "inputs": [
        {
          "internalType": "address",
          "name": "to",
          "type": "address"
        },
        {
          "internalType": "uint256",
          "name": "tokenId",
          "type": "uint256"
        }
      ],
      "name": "approve",
      "outputs": [],
      "stateMutability": "nonpayable",
      "type": "function"
    },
    {
      "inputs": [
        {
          "internalType": "address",
          "name": "owner",
          "type": "address"
        }
      ],
      "name": "balanceOf",
      "outputs": [
        {
          "internalType": "uint256",
          "name": "",
          "type": "uint256"
        }
      ],
      "stateMutability": "view",
      "type": "function"
    },
    {
      "inputs": [
        {
          "internalType": "uint256",
          "name": "tokenId",
          "type": "uint256"
        }
      ],
      "name": "getApproved",
      "outputs": [
        {
          "internalType": "address",
          "name": "",
          "type": "address"
        }
      ],
      "stateMutability": "view",
      "type": "function"
    },
    {
      "inputs": [
        {
          "internalType": "address",
          "name": "owner",
          "type": "address"
        },
        {
          "internalType": "address",
          "name": "operator",
          "type": "address"
        }
      ],
      "name": "isApprovedForAll",
      "outputs": [
        {
          "internalType": "bool",
          "name": "",
          "type": "bool"
        }
      ],
      "stateMutability": "view",
      "type": "function"
    },
    {
      "inputs": [
        {
          "internalType": "address",
          "name": "to",
          "type": "address"
        },
        {
          "internalType": "uint256",
          "name": "tokenId",
          "type": "uint256"
        },
        {
          "internalType": "string",
          "name": "_tokenURI",
          "type": "string"
        }
      ],
      "name": "mint",
      "outputs": [],
      "stateMutability": "nonpayable",
      "type": "function"
    },
    {
      "inputs": [],
      "name": "name",
      "outputs": [
        {
          "internalType": "string",
          "name": "",
          "type": "string"
        }
      ],
      "stateMutability": "view",
      "type": "function"
    },
    {
      "inputs": [],
      "name": "owner",
      "outputs": [
        {
          "internalType": "address",
          "name": "",
          "type": "address"
        }
      ],
      "stateMutability": "view",
      "type": "function"
    },
    {
      "inputs": [
        {
          "internalType": "uint256",
          "name": "tokenId",
          "type": "uint256"
        }
      ],
      "name": "ownerOf",
      "outputs": [
        {
          "internalType": "address",
          "name": "",
          "type": "address"
        }
      ],
      "stateMutability": "view",
      "type": "function"
    },
    {
      "inputs": [
        {
          "internalType": "uint256",
          "name": "tokenId",
          "type": "uint256"
        }
      ],
      "name": "promptDescription",
      "outputs": [
        {
          "internalType": "string",
          "name": "",
          "type": "string"
        }
      ],
      "stateMutability": "view",
      "type": "function"
    },
    {
      "inputs": [],
      "name": "renounceOwnership",
      "outputs": [],
      "stateMutability": "nonpayable",
      "type": "function"
    },
    {
      "inputs": [
        {
          "internalType": "address",
          "name": "from",
          "type": "address"
        },
        {
          "internalType": "address",
          "name": "to",
          "type": "address"
        },
        {
          "internalType": "uint256",
          "name": "tokenId",
          "type": "uint256"
        }
      ],
      "name": "safeTransferFrom",
      "outputs": [],
      "stateMutability": "nonpayable",
      "type": "function"
    },
    {
      "inputs": [
        {
          "internalType": "address",
          "name": "from",
          "type": "address"
        },
        {
          "internalType": "address",
          "name": "to",
          "type": "address"
        },
        {
          "internalType": "uint256",
          "name": "tokenId",
          "type": "uint256"
        },
        {
          "internalType": "bytes",
          "name": "data",
          "type": "bytes"
        }
      ],
      "name": "safeTransferFrom",
      "outputs": [],
      "stateMutability": "nonpayable",
      "type": "function"
    },
    {
      "inputs": [
        {
          "internalType": "address",
          "name": "operator",
          "type": "address"
        },
        {
          "internalType": "bool",
          "name": "approved",
          "type": "bool"
        }
      ],
      "name": "setApprovalForAll",
      "outputs": [],
      "stateMutability": "nonpayable",
      "type": "function"
    },
    {
      "inputs": [
        {
          "internalType": "bytes4",
          "name": "interfaceId",
          "type": "bytes4"
        }
      ],
      "name": "supportsInterface",
      "outputs": [
        {
          "internalType": "bool",
          "name": "",
          "type": "bool"
        }
      ],
      "stateMutability": "view",
      "type": "function"
    },
    {
      "inputs": [],
      "name": "symbol",
      "outputs": [
        {
          "internalType": "string",
          "name": "",
          "type": "string"
        }
      ],
      "stateMutability": "view",
      "type": "function"
    },
    {
      "inputs": [
        {
          "internalType": "uint256",
          "name": "tokenId",
          "type": "uint256"
        }
      ],
      "name": "tokenURI",
      "outputs": [
        {
          "internalType": "string",
          "name": "",
          "type": "string"
        }
      ],
      "stateMutability": "view",
      "type": "function"
    },
    {
      "inputs": [
        {
          "internalType": "address",
          "name": "from",
          "type": "address"
        },
        {
          "internalType": "address",
          "name": "to",
          "type": "address"
        },
        {
          "internalType": "uint256",
          "name": "tokenId",
          "type": "uint256"
        }
      ],
      "name": "transferFrom",
      "outputs": [],
      "stateMutability": "nonpayable",
      "type": "function"
    },
    {
      "inputs": [
        {
          "internalType": "address",
          "name": "newOwner",
          "type": "address"
        }
      ],
      "name": "transferOwnership",
      "outputs": [],
      "stateMutability": "nonpayable",
      "type": "function"
    }
  ],
  "bytecode": "0x60806040523480156200001157600080fd5b50604051620032fe380380620032fe833981810160405281019062000037919062000553565b6040518060400160405280600581526020017f4d794e46540000000000000000000000000000000000000000000000000000008152506040518060400160405280600481526020017f4d4e4654000000000000000000000000000000000000000000000000000000008152508160009081620000b49190620007ef565b508060019081620000c69190620007ef565b505050620000e9620000dd6200010960201b60201c565b6200011160201b60201c565b806007908051906020019062000101929190620001d7565b5050620008d6565b600033905090565b6000600660009054906101000a900473ffffffffffffffffffffffffffffffffffffffff16905081600660006101000a81548173ffffffffffffffffffffffffffffffffffffffff021916908373ffffffffffffffffffffffffffffffffffffffff1602179055508173ffffffffffffffffffffffffffffffffffffffff168173ffffffffffffffffffffffffffffffffffffffff167f8be0079c531659141344cd1fd0a4f28419497f9722a3daafe3b4186f6b6457e060405160405180910390a35050565b82805482825590600052602060002090810192821562000224579160200282015b8281111562000223578251829081620002129190620007ef565b5091602001919060010190620001f8565b5b50905062000233919062000237565b5090565b5b808211156200025b57600081816200025191906200025f565b5060010162000238565b5090565b5080546200026d90620005de565b6000825580601f10620002815750620002a2565b601f016020900490600052602060002090810190620002a19190620002a5565b5b50565b5b80821115620002c0576000816000905550600101620002a6565b5090565b6000604051905090565b600080fd5b600080fd5b600080fd5b6000601f19601f8301169050919050565b7f4e487b7100000000000000000000000000000000000000000000000000000000600052604160045260246000fd5b6200032882620002dd565b810181811067ffffffffffffffff821117156200034a5762000349620002ee565b5b80604052505050565b60006200035f620002c4565b90506200036d82826200031d565b919050565b600067ffffffffffffffff82111562000390576200038f620002ee565b5b602082029050602081019050919050565b600080fd5b600080fd5b600067ffffffffffffffff821115620003c957620003c8620002ee565b5b620003d482620002dd565b9050602081019050919050565b60005b8381101562000401578082015181840152602081019050620003e4565b60008484015250505050565b6000620004246200041e84620003ab565b62000353565b905082815260208101848484011115620004435762000442620003a6565b5b62000450848285620003e1565b509392505050565b600082601f83011262000470576200046f620002d8565b5b8151620004828482602086016200040d565b91505092915050565b6000620004a26200049c8462000372565b62000353565b90508083825260208201905060208402830185811115620004c857620004c7620003a1565b5b835b818110156200051657805167ffffffffffffffff811115620004f157620004f0620002d8565b5b80860162000500898262000458565b85526020850194505050602081019050620004ca565b5050509392505050565b600082601f830112620005385762000537620002d8565b5b81516200054a8482602086016200048b565b91505092915050565b6000602082840312156200056c576200056b620002ce565b5b600082015167ffffffffffffffff8111156200058d576200058c620002d3565b5b6200059b8482850162000520565b91505092915050565b600081519050919050565b7f4e487b7100000000000000000000000000000000000000000000000000000000600052602260045260246000fd5b60006002820490506001821680620005f757607f821691505b6020821081036200060d576200060c620005af565b5b50919050565b60008190508160005260206000209050919050565b60006020601f8301049050919050565b600082821b905092915050565b600060088302620006777fffffffffffffffffffffffffffffffffffffffffffffffffffffffffffffffff8262000638565b62000683868362000638565b95508019841693508086168417925050509392505050565b6000819050919050565b6000819050919050565b6000620006d0620006ca620006c4846200069b565b620006a5565b6200069b565b9050919050565b6000819050919050565b620006ec83620006af565b62000704620006fb82620006d7565b84845462000645565b825550505050565b600090565b6200071b6200070c565b62000728818484620006e1565b505050565b5b8181101562000750576200074460008262000711565b6001810190506200072e565b5050565b601f8211156200079f57620007698162000613565b620007748462000628565b8101602085101562000784578190505b6200079c620007938562000628565b8301826200072d565b50505b505050565b600082821c905092915050565b6000620007c460001984600802620007a4565b1980831691505092915050565b6000620007df8383620007b1565b9150826002028217905092915050565b620007fa82620005a4565b67ffffffffffffffff811115620008165762000815620002ee565b5b620008228254620005de565b6200082f82828562000754565b600060209050601f83116001811462000867576000841562000852578287015190505b6200085e8582620007d1565b865550620008ce565b601f198416620008778662000613565b60005b82811015620008a1578489015182556001820191506020850194506020810190506200087a565b86831015620008c15784890151620008bd601f891682620007b1565b8355505b6001600288020188555050505b505050505050565b612a1880620008e66000396000f3fe608060405234801561001057600080fd5b50600436106101165760003560e01c80638da5cb5b116100a2578063b88d4fde11610071578063b88d4fde146102df578063c87b56dd146102fb578063d3fc98641461032b578063e985e9c514610347578063f2fde38b1461037757610116565b80638da5cb5b146102575780638e5a86381461027557806395d89b41146102a5578063a22cb465146102c357610116565b806323b872dd116100e957806323b872dd146101b557806342842e0e146101d15780636352211e146101ed57806370a082311461021d578063715018a61461024d57610116565b806301ffc9a71461011b57806306fdde031461014b578063081812fc14610169578063095ea7b314610199575b600080fd5b610135600480360381019061013091906118e8565b610393565b6040516101429190611930565b60405180910390f35b610153610475565b60405161016091906119db565b60405180910390f35b610183600480360381019061017e9190611a33565b610507565b6040516101909190611aa1565b60405180910390f35b6101b360048036038101906101ae9190611ae8565b61054d565b005b6101cf60048036038101906101ca9190611b28565b610664565b005b6101eb60048036038101906101e69190611b28565b6106c4565b005b61020760048036038101906102029190611a33565b6106e4565b6040516102149190611aa1565b60405180910390f35b61023760048036038101906102329190611b7b565b61076a565b6040516102449190611bb7565b60405180910390f35b610255610821565b005b61025f610835565b60405161026c9190611aa1565b60405180910390f35b61028f600480360381019061028a9190611a33565b61085f565b60405161029c91906119db565b60405180910390f35b6102ad61090f565b6040516102ba91906119db565b60405180910390f35b6102dd60048036038101906102d89190611bfe565b6109a1565b005b6102f960048036038101906102f49190611d73565b6109b7565b005b61031560048036038101906103109190611a33565b610a19565b60405161032291906119db565b60405180910390f35b61034560048036038101906103409190611e97565b610abe565b005b610361600480360381019061035c9190611f06565b610adf565b60405161036e9190611930565b60405180910390f35b610391600480360381019061038c9190611b7b565b610b73565b005b60007f80ac58cd000000000000000000000000000000000000000000000000000000007bffffffffffffffffffffffffffffffffffffffffffffffffffffffff1916827bffffffffffffffffffffffffffffffffffffffffffffffffffffffff1916148061045e57507f5b5e139f000000000000000000000000000000000000000000000000000000007bffffffffffffffffffffffffffffffffffffffffffffffffffffffff1916827bffffffffffffffffffffffffffffffffffffffffffffffffffffffff1916145b8061046e575061046d82610bf6565b5b9050919050565b60606000805461048490611f75565b80601f01602080910402602001604051908101604052809291908181526020018280546104b090611f75565b80156104fd5780601f106104d2576101008083540402835291602001916104fd565b820191906000526020600020905b8154815290600101906020018083116104e057829003601f168201915b5050505050905090565b600061051282610c60565b6004600083815260200190815260200160002060009054906101000a900473ffffffffffffffffffffffffffffffffffffffff169050919050565b6000610558826106e4565b90508073ffffffffffffffffffffffffffffffffffffffff168373ffffffffffffffffffffffffffffffffffffffff16036105c8576040517f08c379a00000000000000000000000000000000000000000000000000000000081526004016105bf90612018565b60405180910390fd5b8073ffffffffffffffffffffffffffffffffffffffff166105e7610cab565b73ffffffffffffffffffffffffffffffffffffffff161480610616575061061581610610610cab565b610adf565b5b610655576040517f08c379a000000000000000000000000000000000000000000000000000000000815260040161064c906120aa565b60405180910390fd5b61065f8383610cb3565b505050565b61067561066f610cab565b82610d6c565b6106b4576040517f08c379a00000000000000000000000000000000000000000000000000000000081526004016106ab9061213c565b60405180910390fd5b6106bf838383610e01565b505050565b6106df838383604051806020016040528060008152506109b7565b505050565b6000806106f0836110fa565b9050600073ffffffffffffffffffffffffffffffffffffffff168173ffffffffffffffffffffffffffffffffffffffff1603610761576040517f08c379a0000000000000000000000000000000000000000000000000000000008152600401610758906121a8565b60405180910390fd5b80915050919050565b60008073ffffffffffffffffffffffffffffffffffffffff168273ffffffffffffffffffffffffffffffffffffffff16036107da576040517f08c379a00000000000000000000000000000000000000000000000000000000081526004016107d19061223a565b60405180910390fd5b600360008373ffffffffffffffffffffffffffffffffffffffff1673ffffffffffffffffffffffffffffffffffffffff168152602001908152602001600020549050919050565b610829611137565b61083360006111b5565b565b6000600660009054906101000a900473ffffffffffffffffffffffffffffffffffffffff16905090565b6060600782815481106108755761087461225a565b5b90600052602060002001805461088a90611f75565b80601f01602080910402602001604051908101604052809291908181526020018280546108b690611f75565b80156109035780601f106108d857610100808354040283529160200191610903565b820191906000526020600020905b8154815290600101906020018083116108e657829003601f168201915b50505050509050919050565b60606001805461091e90611f75565b80601f016020809104026020016040519081016040528092919081815260200182805461094a90611f75565b80156109975780601f1061096c57610100808354040283529160200191610997565b820191906000526020600020905b81548152906001019060200180831161097a57829003601f168201915b5050505050905090565b6109b36109ac610cab565b838361127b565b5050565b6109c86109c2610cab565b83610d6c565b610a07576040517f08c379a00000000000000000000000000000000000000000000000000000000081526004016109fe9061213c565b60405180910390fd5b610a13848484846113e7565b50505050565b6060600860008381526020019081526020016000208054610a3990611f75565b80601f0160208091040260200160405190810160405280929190818152602001828054610a6590611f75565b8015610ab25780601f10610a8757610100808354040283529160200191610ab2565b820191906000526020600020905b815481529060010190602001808311610a9557829003601f168201915b50505050509050919050565b610ac6611137565b610ad08383611443565b610ada8282611660565b505050565b6000600560008473ffffffffffffffffffffffffffffffffffffffff1673ffffffffffffffffffffffffffffffffffffffff16815260200190815260200160002060008373ffffffffffffffffffffffffffffffffffffffff1673ffffffffffffffffffffffffffffffffffffffff16815260200190815260200160002060009054906101000a900460ff16905092915050565b610b7b611137565b600073ffffffffffffffffffffffffffffffffffffffff168173ffffffffffffffffffffffffffffffffffffffff1603610bea576040517f08c379a0000000000000000000000000000000000000000000000000000000008152600401610be1906122fb565b60405180910390fd5b610bf3816111b5565b50565b60007f01ffc9a7000000000000000000000000000000000000000000000000000000007bffffffffffffffffffffffffffffffffffffffffffffffffffffffff1916827bffffffffffffffffffffffffffffffffffffffffffffffffffffffff1916149050919050565b610c6981611685565b610ca8576040517f08c379a0000000000000000000000000000000000000000000000000000000008152600401610c9f906121a8565b60405180910390fd5b50565b600033905090565b816004600083815260200190815260200160002060006101000a81548173ffffffffffffffffffffffffffffffffffffffff021916908373ffffffffffffffffffffffffffffffffffffffff160217905550808273ffffffffffffffffffffffffffffffffffffffff16610d26836106e4565b73ffffffffffffffffffffffffffffffffffffffff167f8c5be1e5ebec7d5bd14f71427d1e84f3dd0314c0f7b2291e5b200ac8c7c3b92560405160405180910390a45050565b600080610d78836106e4565b90508073ffffffffffffffffffffffffffffffffffffffff168473ffffffffffffffffffffffffffffffffffffffff161480610dba5750610db98185610adf565b5b80610df857508373ffffffffffffffffffffffffffffffffffffffff16610de084610507565b73ffffffffffffffffffffffffffffffffffffffff16145b91505092915050565b8273ffffffffffffffffffffffffffffffffffffffff16610e21826106e4565b73ffffffffffffffffffffffffffffffffffffffff1614610e77576040517f08c379a0000000000000000000000000000000000000000000000000000000008152600401610e6e9061238d565b60405180910390fd5b600073ffffffffffffffffffffffffffffffffffffffff168273ffffffffffffffffffffffffffffffffffffffff1603610ee6576040517f08c379a0000000000000000000000000000000000000000000000000000000008152600401610edd9061241f565b60405180910390fd5b610ef383838360016116c6565b8273ffffffffffffffffffffffffffffffffffffffff16610f13826106e4565b73ffffffffffffffffffffffffffffffffffffffff1614610f69576040517f08c379a0000000000000000000000000000000000000000000000000000000008152600401610f609061238d565b60405180910390fd5b6004600082815260200190815260200160002060006101000a81549073ffffffffffffffffffffffffffffffffffffffff02191690556001600360008573ffffffffffffffffffffffffffffffffffffffff1673ffffffffffffffffffffffffffffffffffffffff168152602001908152602001600020600082825403925050819055506001600360008473ffffffffffffffffffffffffffffffffffffffff1673ffffffffffffffffffffffffffffffffffffffff16815260200190815260200160002060008282540192505081905550816002600083815260200190815260200160002060006101000a81548173ffffffffffffffffffffffffffffffffffffffff021916908373ffffffffffffffffffffffffffffffffffffffff160217905550808273ffffffffffffffffffffffffffffffffffffffff168473ffffffffffffffffffffffffffffffffffffffff167fddf252ad1be2c89b69c2b068fc378daa952ba7f163c4a11628f55a4df523b3ef60405160405180910390a46110f583838360016116cc565b505050565b60006002600083815260200190815260200160002060009054906101000a900473ffffffffffffffffffffffffffffffffffffffff169050919050565b61113f610cab565b73ffffffffffffffffffffffffffffffffffffffff1661115d610835565b73ffffffffffffffffffffffffffffffffffffffff16146111b3576040517f08c379a00000000000000000000000000000000000000000000000000000000081526004016111aa9061248b565b60405180910390fd5b565b6000600660009054906101000a900473ffffffffffffffffffffffffffffffffffffffff16905081600660006101000a81548173ffffffffffffffffffffffffffffffffffffffff021916908373ffffffffffffffffffffffffffffffffffffffff1602179055508173ffffffffffffffffffffffffffffffffffffffff168173ffffffffffffffffffffffffffffffffffffffff167f8be0079c531659141344cd1fd0a4f28419497f9722a3daafe3b4186f6b6457e060405160405180910390a35050565b8173ffffffffffffffffffffffffffffffffffffffff168373ffffffffffffffffffffffffffffffffffffffff16036112e9576040517f08c379a00000000000000000000000000000000000000000000000000000000081526004016112e0906124f7565b60405180910390fd5b80600560008573ffffffffffffffffffffffffffffffffffffffff1673ffffffffffffffffffffffffffffffffffffffff16815260200190815260200160002060008473ffffffffffffffffffffffffffffffffffffffff1673ffffffffffffffffffffffffffffffffffffffff16815260200190815260200160002060006101000a81548160ff0219169083151502179055508173ffffffffffffffffffffffffffffffffffffffff168373ffffffffffffffffffffffffffffffffffffffff167f17307eab39ab6107e8899845ad3d59bd9653f200f220920489ca2b5937696c31836040516113da9190611930565b60405180910390a3505050565b6113f2848484610e01565b6113fe848484846116d2565b61143d576040517f08c379a000000000000000000000000000000000000000000000000000000000815260040161143490612589565b60405180910390fd5b50505050565b600073ffffffffffffffffffffffffffffffffffffffff168273ffffffffffffffffffffffffffffffffffffffff16036114b2576040517f08c379a00000000000000000000000000000000000000000000000000000000081526004016114a9906125f5565b60405180910390fd5b6114bb81611685565b156114fb576040517f08c379a00000000000000000000000000000000000000000000000000000000081526004016114f290612661565b60405180910390fd5b6115096000838360016116c6565b61151281611685565b15611552576040517f08c379a000000000000000000000000000000000000000000000000000000000815260040161154990612661565b60405180910390fd5b6001600360008473ffffffffffffffffffffffffffffffffffffffff1673ffffffffffffffffffffffffffffffffffffffff16815260200190815260200160002060008282540192505081905550816002600083815260200190815260200160002060006101000a81548173ffffffffffffffffffffffffffffffffffffffff021916908373ffffffffffffffffffffffffffffffffffffffff160217905550808273ffffffffffffffffffffffffffffffffffffffff16600073ffffffffffffffffffffffffffffffffffffffff167fddf252ad1be2c89b69c2b068fc378daa952ba7f163c4a11628f55a4df523b3ef60405160405180910390a461165c6000838360016116cc565b5050565b80600860008481526020019081526020016000209081611680919061282d565b505050565b60008073ffffffffffffffffffffffffffffffffffffffff166116a7836110fa565b73ffffffffffffffffffffffffffffffffffffffff1614159050919050565b50505050565b50505050565b60006116f38473ffffffffffffffffffffffffffffffffffffffff16611859565b1561184c578373ffffffffffffffffffffffffffffffffffffffff1663150b7a0261171c610cab565b8786866040518563ffffffff1660e01b815260040161173e9493929190612954565b6020604051808303816000875af192505050801561177a57506040513d601f19601f8201168201806040525081019061177791906129b5565b60015b6117fc573d80600081146117aa576040519150601f19603f3d011682016040523d82523d6000602084013e6117af565b606091505b5060008151036117f4576040517f08c379a00000000000000000000000000000000000000000000000000000000081526004016117eb90612589565b60405180910390fd5b805181602001fd5b63150b7a0260e01b7bffffffffffffffffffffffffffffffffffffffffffffffffffffffff1916817bffffffffffffffffffffffffffffffffffffffffffffffffffffffff191614915050611851565b600190505b949350505050565b6000808273ffffffffffffffffffffffffffffffffffffffff163b119050919050565b6000604051905090565b600080fd5b600080fd5b60007fffffffff0000000000000000000000000000000000000000000000000000000082169050919050565b6118c581611890565b81146118d057600080fd5b50565b6000813590506118e2816118bc565b92915050565b6000602082840312156118fe576118fd611886565b5b600061190c848285016118d3565b91505092915050565b60008115159050919050565b61192a81611915565b82525050565b60006020820190506119456000830184611921565b92915050565b600081519050919050565b600082825260208201905092915050565b60005b8381101561198557808201518184015260208101905061196a565b60008484015250505050565b6000601f19601f8301169050919050565b60006119ad8261194b565b6119b78185611956565b93506119c7818560208601611967565b6119d081611991565b840191505092915050565b600060208201905081810360008301526119f581846119a2565b905092915050565b6000819050919050565b611a10816119fd565b8114611a1b57600080fd5b50565b600081359050611a2d81611a07565b92915050565b600060208284031215611a4957611a48611886565b5b6000611a5784828501611a1e565b91505092915050565b600073ffffffffffffffffffffffffffffffffffffffff82169050919050565b6000611a8b82611a60565b9050919050565b611a9b81611a80565b82525050565b6000602082019050611ab66000830184611a92565b92915050565b611ac581611a80565b8114611ad057600080fd5b50565b600081359050611ae281611abc565b92915050565b60008060408385031215611aff57611afe611886565b5b6000611b0d85828601611ad3565b9250506020611b1e85828601611a1e565b9150509250929050565b600080600060608486031215611b4157611b40611886565b5b6000611b4f86828701611ad3565b9350506020611b6086828701611ad3565b9250506040611b7186828701611a1e565b9150509250925092565b600060208284031215611b9157611b90611886565b5b6000611b9f84828501611ad3565b91505092915050565b611bb1816119fd565b82525050565b6000602082019050611bcc6000830184611ba8565b92915050565b611bdb81611915565b8114611be657600080fd5b50565b600081359050611bf881611bd2565b92915050565b60008060408385031215611c1557611c14611886565b5b6000611c2385828601611ad3565b9250506020611c3485828601611be9565b9150509250929050565b600080fd5b600080fd5b7f4e487b7100000000000000000000000000000000000000000000000000000000600052604160045260246000fd5b611c8082611991565b810181811067ffffffffffffffff82111715611c9f57611c9e611c48565b5b80604052505050565b6000611cb261187c565b9050611cbe8282611c77565b919050565b600067ffffffffffffffff821115611cde57611cdd611c48565b5b611ce782611991565b9050602081019050919050565b82818337600083830152505050565b6000611d16611d1184611cc3565b611ca8565b905082815260208101848484011115611d3257611d31611c43565b5b611d3d848285611cf4565b509392505050565b600082601f830112611d5a57611d59611c3e565b5b8135611d6a848260208601611d03565b91505092915050565b60008060008060808587031215611d8d57611d8c611886565b5b6000611d9b87828801611ad3565b9450506020611dac87828801611ad3565b9350506040611dbd87828801611a1e565b925050606085013567ffffffffffffffff811115611dde57611ddd61188b565b5b611dea87828801611d45565b91505092959194509250565b600067ffffffffffffffff821115611e1157611e10611c48565b5b611e1a82611991565b9050602081019050919050565b6000611e3a611e3584611df6565b611ca8565b905082815260208101848484011115611e5657611e55611c43565b5b611e61848285611cf4565b509392505050565b600082601f830112611e7e57611e7d611c3e565b5b8135611e8e848260208601611e27565b91505092915050565b600080600060608486031215611eb057611eaf611886565b5b6000611ebe86828701611ad3565b9350506020611ecf86828701611a1e565b925050604084013567ffffffffffffffff811115611ef057611eef61188b565b5b611efc86828701611e69565b9150509250925092565b60008060408385031215611f1d57611f1c611886565b5b6000611f2b85828601611ad3565b9250506020611f3c85828601611ad3565b9150509250929050565b7f4e487b7100000000000000000000000000000000000000000000000000000000600052602260045260246000fd5b60006002820490506001821680611f8d57607f821691505b602082108103611fa057611f9f611f46565b5b50919050565b7f4552433732313a20617070726f76616c20746f2063757272656e74206f776e6560008201527f7200000000000000000000000000000000000000000000000000000000000000602082015250565b6000612002602183611956565b915061200d82611fa6565b604082019050919050565b6000602082019050818103600083015261203181611ff5565b9050919050565b7f4552433732313a20617070726f76652063616c6c6572206973206e6f7420746f60008201527f6b656e206f776e6572206f7220617070726f76656420666f7220616c6c000000602082015250565b6000612094603d83611956565b915061209f82612038565b604082019050919050565b600060208201905081810360008301526120c381612087565b9050919050565b7f4552433732313a2063616c6c6572206973206e6f7420746f6b656e206f776e6560008201527f72206f7220617070726f76656400000000000000000000000000000000000000602082015250565b6000612126602d83611956565b9150612131826120ca565b604082019050919050565b6000602082019050818103600083015261215581612119565b9050919050565b7f4552433732313a20696e76616c696420746f6b656e2049440000000000000000600082015250565b6000612192601883611956565b915061219d8261215c565b602082019050919050565b600060208201905081810360008301526121c181612185565b9050919050565b7f4552433732313a2061646472657373207a65726f206973206e6f74206120766160008201527f6c6964206f776e65720000000000000000000000000000000000000000000000602082015250565b6000612224602983611956565b915061222f826121c8565b604082019050919050565b6000602082019050818103600083015261225381612217565b9050919050565b7f4e487b7100000000000000000000000000000000000000000000000000000000600052603260045260246000fd5b7f4f776e61626c653a206e6577206f776e657220697320746865207a65726f206160008201527f6464726573730000000000000000000000000000000000000000000000000000602082015250565b60006122e5602683611956565b91506122f082612289565b604082019050919050565b60006020820190508181036000830152612314816122d8565b9050919050565b7f4552433732313a207472616e736665722066726f6d20696e636f72726563742060008201527f6f776e6572000000000000000000000000000000000000000000000000000000602082015250565b6000612377602583611956565b91506123828261231b565b604082019050919050565b600060208201905081810360008301526123a68161236a565b9050919050565b7f4552433732313a207472616e7366657220746f20746865207a65726f2061646460008201527f7265737300000000000000000000000000000000000000000000000000000000602082015250565b6000612409602483611956565b9150612414826123ad565b604082019050919050565b60006020820190508181036000830152612438816123fc565b9050919050565b7f4f776e61626c653a2063616c6c6572206973206e6f7420746865206f776e6572600082015250565b6000612475602083611956565b91506124808261243f565b602082019050919050565b600060208201905081810360008301526124a481612468565b9050919050565b7f4552433732313a20617070726f766520746f2063616c6c657200000000000000600082015250565b60006124e1601983611956565b91506124ec826124ab565b602082019050919050565b60006020820190508181036000830152612510816124d4565b9050919050565b7f4552433732313a207472616e7366657220746f206e6f6e20455243373231526560008201527f63656976657220696d706c656d656e7465720000000000000000000000000000602082015250565b6000612573603283611956565b915061257e82612517565b604082019050919050565b600060208201905081810360008301526125a281612566565b9050919050565b7f4552433732313a206d696e7420746f20746865207a65726f2061646472657373600082015250565b60006125df602083611956565b91506125ea826125a9565b602082019050919050565b6000602082019050818103600083015261260e816125d2565b9050919050565b7f4552433732313a20746f6b656e20616c7265616479206d696e74656400000000600082015250565b600061264b601c83611956565b915061265682612615565b602082019050919050565b6000602082019050818103600083015261267a8161263e565b9050919050565b60008190508160005260206000209050919050565b60006020601f8301049050919050565b600082821b905092915050565b6000600883026126e37fffffffffffffffffffffffffffffffffffffffffffffffffffffffffffffffff826126a6565b6126ed86836126a6565b95508019841693508086168417925050509392505050565b6000819050919050565b600061272a612725612720846119fd565b612705565b6119fd565b9050919050565b6000819050919050565b6127448361270f565b61275861275082612731565b8484546126b3565b825550505050565b600090565b61276d612760565b61277881848461273b565b505050565b5b8181101561279c57612791600082612765565b60018101905061277e565b5050565b601f8211156127e1576127b281612681565b6127bb84612696565b810160208510156127ca578190505b6127de6127d685612696565b83018261277d565b50505b505050565b600082821c905092915050565b6000612804600019846008026127e6565b1980831691505092915050565b600061281d83836127f3565b9150826002028217905092915050565b6128368261194b565b67ffffffffffffffff81111561284f5761284e611c48565b5b6128598254611f75565b6128648282856127a0565b600060209050601f8311600181146128975760008415612885578287015190505b61288f8582612811565b8655506128f7565b601f1984166128a586612681565b60005b828110156128cd578489015182556001820191506020850194506020810190506128a8565b868310156128ea57848901516128e6601f8916826127f3565b8355505b6001600288020188555050505b505050505050565b600081519050919050565b600082825260208201905092915050565b6000612926826128ff565b612930818561290a565b9350612940818560208601611967565b61294981611991565b840191505092915050565b60006080820190506129696000830187611a92565b6129766020830186611a92565b6129836040830185611ba8565b8181036060830152612995818461291b565b905095945050505050565b6000815190506129af816118bc565b92915050565b6000602082840312156129cb576129ca611886565b5b60006129d9848285016129a0565b9150509291505056fea26469706673582212204cb68108fb5be1baadaf37f9660cecd7510938b3299e2f1ea145424772376c6464736f6c63430008120033",
  "linkReferences": {},
  "deployedLinkReferences": {}
}